{
  "contracts/CrowdFunding.sol": {
    "CrowdFunding": {
      "abi": [
        {
          "anonymous": false,
          "inputs": [
            {
              "indexed": true,
              "internalType": "uint256",
              "name": "campaignId",
              "type": "uint256"
            },
            {
              "indexed": true,
              "internalType": "address",
              "name": "owner",
              "type": "address"
            },
            {
              "indexed": false,
              "internalType": "uint256",
              "name": "goal",
              "type": "uint256"
            }
          ],
          "name": "CampaignCreated",
          "type": "event"
        },
        {
          "anonymous": false,
          "inputs": [
            {
              "indexed": true,
              "internalType": "uint256",
              "name": "campaignId",
              "type": "uint256"
            },
            {
              "indexed": true,
              "internalType": "address",
              "name": "contributor",
              "type": "address"
            },
            {
              "indexed": false,
              "internalType": "uint256",
              "name": "amount",
              "type": "uint256"
            }
          ],
          "name": "Contributed",
          "type": "event"
        },
        {
          "anonymous": false,
          "inputs": [
            {
              "indexed": true,
              "internalType": "uint256",
              "name": "campaignId",
              "type": "uint256"
            },
            {
              "indexed": true,
              "internalType": "address",
              "name": "owner",
              "type": "address"
            },
            {
              "indexed": false,
              "internalType": "uint256",
              "name": "amount",
              "type": "uint256"
            }
          ],
          "name": "FundsWithdrawn",
          "type": "event"
        },
        {
          "anonymous": false,
          "inputs": [
            {
              "indexed": true,
              "internalType": "uint256",
              "name": "campaignId",
              "type": "uint256"
            },
            {
              "indexed": false,
              "internalType": "uint256",
              "name": "totalFunds",
              "type": "uint256"
            }
          ],
          "name": "GoalReached",
          "type": "event"
        },
        {
          "inputs": [],
          "name": "campaignCount",
          "outputs": [
            {
              "internalType": "uint256",
              "name": "",
              "type": "uint256"
            }
          ],
          "stateMutability": "view",
          "type": "function"
        },
        {
          "inputs": [
            {
              "internalType": "uint256",
              "name": "",
              "type": "uint256"
            }
          ],
          "name": "campaigns",
          "outputs": [
            {
              "internalType": "address",
              "name": "owner",
              "type": "address"
            },
            {
              "internalType": "uint256",
              "name": "goal",
              "type": "uint256"
            },
            {
              "internalType": "uint256",
              "name": "totalFunds",
              "type": "uint256"
            },
            {
              "internalType": "bool",
              "name": "isGoalReached",
              "type": "bool"
            }
          ],
          "stateMutability": "view",
          "type": "function"
        },
        {
          "inputs": [
            {
              "internalType": "uint256",
              "name": "_campaignId",
              "type": "uint256"
            }
          ],
          "name": "contribute",
          "outputs": [],
          "stateMutability": "payable",
          "type": "function"
        },
        {
          "inputs": [
            {
              "internalType": "uint256",
              "name": "",
              "type": "uint256"
            },
            {
              "internalType": "address",
              "name": "",
              "type": "address"
            }
          ],
          "name": "contributions",
          "outputs": [
            {
              "internalType": "uint256",
              "name": "",
              "type": "uint256"
            }
          ],
          "stateMutability": "view",
          "type": "function"
        },
        {
          "inputs": [
            {
              "internalType": "uint256",
              "name": "_goal",
              "type": "uint256"
            }
          ],
          "name": "createCampaign",
          "outputs": [],
          "stateMutability": "nonpayable",
          "type": "function"
        },
        {
          "inputs": [
            {
              "internalType": "uint256",
              "name": "_campaignId",
              "type": "uint256"
            }
          ],
          "name": "withdrawFunds",
          "outputs": [],
          "stateMutability": "nonpayable",
          "type": "function"
        }
      ],
      "evm": {
        "bytecode": {
          "linkReferences": {},
          "object": "6080604052348015600f57600080fd5b50610d398061001f6000396000f3fe6080604052600436106100555760003560e01c8063141961bc1461005a578063155dd5ee1461009a5780633d891f59146100c35780637274e30d14610100578063a3303a751461012b578063c1cbbca714610154575b600080fd5b34801561006657600080fd5b50610081600480360381019061007c919061080f565b610170565b60405161009194939291906108a7565b60405180910390f35b3480156100a657600080fd5b506100c160048036038101906100bc919061080f565b6101cd565b005b3480156100cf57600080fd5b506100ea60048036038101906100e59190610918565b610400565b6040516100f79190610958565b60405180910390f35b34801561010c57600080fd5b50610115610425565b6040516101229190610958565b60405180910390f35b34801561013757600080fd5b50610152600480360381019061014d919061080f565b61042b565b005b61016e6004803603810190610169919061080f565b6105a7565b005b60006020528060005260406000206000915090508060000160009054906101000a900473ffffffffffffffffffffffffffffffffffffffff16908060010154908060020154908060030160009054906101000a900460ff16905084565b6002548110610211576040517f08c379a0000000000000000000000000000000000000000000000000000000008152600401610208906109d0565b60405180910390fd5b600080600083815260200190815260200160002090508060000160009054906101000a900473ffffffffffffffffffffffffffffffffffffffff1673ffffffffffffffffffffffffffffffffffffffff163373ffffffffffffffffffffffffffffffffffffffff16146102b9576040517f08c379a00000000000000000000000000000000000000000000000000000000081526004016102b090610a62565b60405180910390fd5b8060030160009054906101000a900460ff1661030a576040517f08c379a000000000000000000000000000000000000000000000000000000000815260040161030190610ace565b60405180910390fd5b600081600201549050600082600201819055508160000160009054906101000a900473ffffffffffffffffffffffffffffffffffffffff1673ffffffffffffffffffffffffffffffffffffffff166108fc829081150290604051600060405180830381858888f19350505050158015610387573d6000803e3d6000fd5b508160000160009054906101000a900473ffffffffffffffffffffffffffffffffffffffff1673ffffffffffffffffffffffffffffffffffffffff16837ff440aec6b52895984d061d622e6edeba6210f7c3e059be920663140c084560d7836040516103f39190610958565b60405180910390a3505050565b6001602052816000526040600020602052806000526040600020600091509150505481565b60025481565b6000811161046e576040517f08c379a000000000000000000000000000000000000000000000000000000000815260040161046590610b3a565b60405180910390fd5b60405180608001604052803373ffffffffffffffffffffffffffffffffffffffff1681526020018281526020016000815260200160001515815250600080600254815260200190815260200160002060008201518160000160006101000a81548173ffffffffffffffffffffffffffffffffffffffff021916908373ffffffffffffffffffffffffffffffffffffffff160217905550602082015181600101556040820151816002015560608201518160030160006101000a81548160ff0219169083151502179055509050503373ffffffffffffffffffffffffffffffffffffffff166002547f63e3678c8493a16f8ba43ae9e547231762ca04526dac2c388bd2c26d89401851836040516105849190610958565b60405180910390a36002600081548092919061059f90610b89565b919050555050565b60025481106105eb576040517f08c379a00000000000000000000000000000000000000000000000000000000081526004016105e2906109d0565b60405180910390fd5b6000341161062e576040517f08c379a000000000000000000000000000000000000000000000000000000000815260040161062590610c43565b60405180910390fd5b600080600083815260200190815260200160002090508060030160009054906101000a900460ff1615610696576040517f08c379a000000000000000000000000000000000000000000000000000000000815260040161068d90610caf565b60405180910390fd5b346001600084815260200190815260200160002060003373ffffffffffffffffffffffffffffffffffffffff1673ffffffffffffffffffffffffffffffffffffffff16815260200190815260200160002060008282546106f69190610ccf565b92505081905550348160020160008282546107119190610ccf565b9250508190555080600101548160020154106107815760018160030160006101000a81548160ff021916908315150217905550817f85b3ed4e45559c5f41fb220aa4ac86a440dfc741f219089de694242940aaa09c82600201546040516107789190610958565b60405180910390a25b3373ffffffffffffffffffffffffffffffffffffffff16827fb2ed2e021651f85a4754a44651fc09ac5141bc0329ce4dfe8dd712a5d04a8b39346040516107c89190610958565b60405180910390a35050565b600080fd5b6000819050919050565b6107ec816107d9565b81146107f757600080fd5b50565b600081359050610809816107e3565b92915050565b600060208284031215610825576108246107d4565b5b6000610833848285016107fa565b91505092915050565b600073ffffffffffffffffffffffffffffffffffffffff82169050919050565b60006108678261083c565b9050919050565b6108778161085c565b82525050565b610886816107d9565b82525050565b60008115159050919050565b6108a18161088c565b82525050565b60006080820190506108bc600083018761086e565b6108c9602083018661087d565b6108d6604083018561087d565b6108e36060830184610898565b95945050505050565b6108f58161085c565b811461090057600080fd5b50565b600081359050610912816108ec565b92915050565b6000806040838503121561092f5761092e6107d4565b5b600061093d858286016107fa565b925050602061094e85828601610903565b9150509250929050565b600060208201905061096d600083018461087d565b92915050565b600082825260208201905092915050565b7f496e76616c69642063616d706169676e20494400000000000000000000000000600082015250565b60006109ba601383610973565b91506109c582610984565b602082019050919050565b600060208201905081810360008301526109e9816109ad565b9050919050565b7f4f6e6c79207468652063616d706169676e206f776e65722063616e207769746860008201527f6472617700000000000000000000000000000000000000000000000000000000602082015250565b6000610a4c602483610973565b9150610a57826109f0565b604082019050919050565b60006020820190508181036000830152610a7b81610a3f565b9050919050565b7f476f616c206e6f74207265616368656420796574000000000000000000000000600082015250565b6000610ab8601483610973565b9150610ac382610a82565b602082019050919050565b60006020820190508181036000830152610ae781610aab565b9050919050565b7f476f616c206d7573742062652067726561746572207468616e207a65726f0000600082015250565b6000610b24601e83610973565b9150610b2f82610aee565b602082019050919050565b60006020820190508181036000830152610b5381610b17565b9050919050565b7f4e487b7100000000000000000000000000000000000000000000000000000000600052601160045260246000fd5b6000610b94826107d9565b91507fffffffffffffffffffffffffffffffffffffffffffffffffffffffffffffffff8203610bc657610bc5610b5a565b5b600182019050919050565b7f436f6e747269627574696f6e206d75737420626520677265617465722074686160008201527f6e207a65726f0000000000000000000000000000000000000000000000000000602082015250565b6000610c2d602683610973565b9150610c3882610bd1565b604082019050919050565b60006020820190508181036000830152610c5c81610c20565b9050919050565b7f476f616c20616c72656164792072656163686564000000000000000000000000600082015250565b6000610c99601483610973565b9150610ca482610c63565b602082019050919050565b60006020820190508181036000830152610cc881610c8c565b9050919050565b6000610cda826107d9565b9150610ce5836107d9565b9250828201905080821115610cfd57610cfc610b5a565b5b9291505056fea26469706673582212201feb77aec87c7ab596406eec0ba3e41341da97525526ce66536a883392c7dd3f64736f6c634300081b0033",
          "opcodes": "PUSH1 0x80 PUSH1 0x40 MSTORE CALLVALUE DUP1 ISZERO PUSH1 0xF JUMPI PUSH1 0x0 DUP1 REVERT JUMPDEST POP PUSH2 0xD39 DUP1 PUSH2 0x1F PUSH1 0x0 CODECOPY PUSH1 0x0 RETURN INVALID PUSH1 0x80 PUSH1 0x40 MSTORE PUSH1 0x4 CALLDATASIZE LT PUSH2 0x55 JUMPI PUSH1 0x0 CALLDATALOAD PUSH1 0xE0 SHR DUP1 PUSH4 0x141961BC EQ PUSH2 0x5A JUMPI DUP1 PUSH4 0x155DD5EE EQ PUSH2 0x9A JUMPI DUP1 PUSH4 0x3D891F59 EQ PUSH2 0xC3 JUMPI DUP1 PUSH4 0x7274E30D EQ PUSH2 0x100 JUMPI DUP1 PUSH4 0xA3303A75 EQ PUSH2 0x12B JUMPI DUP1 PUSH4 0xC1CBBCA7 EQ PUSH2 0x154 JUMPI JUMPDEST PUSH1 0x0 DUP1 REVERT JUMPDEST CALLVALUE DUP1 ISZERO PUSH2 0x66 JUMPI PUSH1 0x0 DUP1 REVERT JUMPDEST POP PUSH2 0x81 PUSH1 0x4 DUP1 CALLDATASIZE SUB DUP2 ADD SWAP1 PUSH2 0x7C SWAP2 SWAP1 PUSH2 0x80F JUMP JUMPDEST PUSH2 0x170 JUMP JUMPDEST PUSH1 0x40 MLOAD PUSH2 0x91 SWAP5 SWAP4 SWAP3 SWAP2 SWAP1 PUSH2 0x8A7 JUMP JUMPDEST PUSH1 0x40 MLOAD DUP1 SWAP2 SUB SWAP1 RETURN JUMPDEST CALLVALUE DUP1 ISZERO PUSH2 0xA6 JUMPI PUSH1 0x0 DUP1 REVERT JUMPDEST POP PUSH2 0xC1 PUSH1 0x4 DUP1 CALLDATASIZE SUB DUP2 ADD SWAP1 PUSH2 0xBC SWAP2 SWAP1 PUSH2 0x80F JUMP JUMPDEST PUSH2 0x1CD JUMP JUMPDEST STOP JUMPDEST CALLVALUE DUP1 ISZERO PUSH2 0xCF JUMPI PUSH1 0x0 DUP1 REVERT JUMPDEST POP PUSH2 0xEA PUSH1 0x4 DUP1 CALLDATASIZE SUB DUP2 ADD SWAP1 PUSH2 0xE5 SWAP2 SWAP1 PUSH2 0x918 JUMP JUMPDEST PUSH2 0x400 JUMP JUMPDEST PUSH1 0x40 MLOAD PUSH2 0xF7 SWAP2 SWAP1 PUSH2 0x958 JUMP JUMPDEST PUSH1 0x40 MLOAD DUP1 SWAP2 SUB SWAP1 RETURN JUMPDEST CALLVALUE DUP1 ISZERO PUSH2 0x10C JUMPI PUSH1 0x0 DUP1 REVERT JUMPDEST POP PUSH2 0x115 PUSH2 0x425 JUMP JUMPDEST PUSH1 0x40 MLOAD PUSH2 0x122 SWAP2 SWAP1 PUSH2 0x958 JUMP JUMPDEST PUSH1 0x40 MLOAD DUP1 SWAP2 SUB SWAP1 RETURN JUMPDEST CALLVALUE DUP1 ISZERO PUSH2 0x137 JUMPI PUSH1 0x0 DUP1 REVERT JUMPDEST POP PUSH2 0x152 PUSH1 0x4 DUP1 CALLDATASIZE SUB DUP2 ADD SWAP1 PUSH2 0x14D SWAP2 SWAP1 PUSH2 0x80F JUMP JUMPDEST PUSH2 0x42B JUMP JUMPDEST STOP JUMPDEST PUSH2 0x16E PUSH1 0x4 DUP1 CALLDATASIZE SUB DUP2 ADD SWAP1 PUSH2 0x169 SWAP2 SWAP1 PUSH2 0x80F JUMP JUMPDEST PUSH2 0x5A7 JUMP JUMPDEST STOP JUMPDEST PUSH1 0x0 PUSH1 0x20 MSTORE DUP1 PUSH1 0x0 MSTORE PUSH1 0x40 PUSH1 0x0 KECCAK256 PUSH1 0x0 SWAP2 POP SWAP1 POP DUP1 PUSH1 0x0 ADD PUSH1 0x0 SWAP1 SLOAD SWAP1 PUSH2 0x100 EXP SWAP1 DIV PUSH20 0xFFFFFFFFFFFFFFFFFFFFFFFFFFFFFFFFFFFFFFFF AND SWAP1 DUP1 PUSH1 0x1 ADD SLOAD SWAP1 DUP1 PUSH1 0x2 ADD SLOAD SWAP1 DUP1 PUSH1 0x3 ADD PUSH1 0x0 SWAP1 SLOAD SWAP1 PUSH2 0x100 EXP SWAP1 DIV PUSH1 0xFF AND SWAP1 POP DUP5 JUMP JUMPDEST PUSH1 0x2 SLOAD DUP2 LT PUSH2 0x211 JUMPI PUSH1 0x40 MLOAD PUSH32 0x8C379A000000000000000000000000000000000000000000000000000000000 DUP2 MSTORE PUSH1 0x4 ADD PUSH2 0x208 SWAP1 PUSH2 0x9D0 JUMP JUMPDEST PUSH1 0x40 MLOAD DUP1 SWAP2 SUB SWAP1 REVERT JUMPDEST PUSH1 0x0 DUP1 PUSH1 0x0 DUP4 DUP2 MSTORE PUSH1 0x20 ADD SWAP1 DUP2 MSTORE PUSH1 0x20 ADD PUSH1 0x0 KECCAK256 SWAP1 POP DUP1 PUSH1 0x0 ADD PUSH1 0x0 SWAP1 SLOAD SWAP1 PUSH2 0x100 EXP SWAP1 DIV PUSH20 0xFFFFFFFFFFFFFFFFFFFFFFFFFFFFFFFFFFFFFFFF AND PUSH20 0xFFFFFFFFFFFFFFFFFFFFFFFFFFFFFFFFFFFFFFFF AND CALLER PUSH20 0xFFFFFFFFFFFFFFFFFFFFFFFFFFFFFFFFFFFFFFFF AND EQ PUSH2 0x2B9 JUMPI PUSH1 0x40 MLOAD PUSH32 0x8C379A000000000000000000000000000000000000000000000000000000000 DUP2 MSTORE PUSH1 0x4 ADD PUSH2 0x2B0 SWAP1 PUSH2 0xA62 JUMP JUMPDEST PUSH1 0x40 MLOAD DUP1 SWAP2 SUB SWAP1 REVERT JUMPDEST DUP1 PUSH1 0x3 ADD PUSH1 0x0 SWAP1 SLOAD SWAP1 PUSH2 0x100 EXP SWAP1 DIV PUSH1 0xFF AND PUSH2 0x30A JUMPI PUSH1 0x40 MLOAD PUSH32 0x8C379A000000000000000000000000000000000000000000000000000000000 DUP2 MSTORE PUSH1 0x4 ADD PUSH2 0x301 SWAP1 PUSH2 0xACE JUMP JUMPDEST PUSH1 0x40 MLOAD DUP1 SWAP2 SUB SWAP1 REVERT JUMPDEST PUSH1 0x0 DUP2 PUSH1 0x2 ADD SLOAD SWAP1 POP PUSH1 0x0 DUP3 PUSH1 0x2 ADD DUP2 SWAP1 SSTORE POP DUP2 PUSH1 0x0 ADD PUSH1 0x0 SWAP1 SLOAD SWAP1 PUSH2 0x100 EXP SWAP1 DIV PUSH20 0xFFFFFFFFFFFFFFFFFFFFFFFFFFFFFFFFFFFFFFFF AND PUSH20 0xFFFFFFFFFFFFFFFFFFFFFFFFFFFFFFFFFFFFFFFF AND PUSH2 0x8FC DUP3 SWAP1 DUP2 ISZERO MUL SWAP1 PUSH1 0x40 MLOAD PUSH1 0x0 PUSH1 0x40 MLOAD DUP1 DUP4 SUB DUP2 DUP6 DUP9 DUP9 CALL SWAP4 POP POP POP POP ISZERO DUP1 ISZERO PUSH2 0x387 JUMPI RETURNDATASIZE PUSH1 0x0 DUP1 RETURNDATACOPY RETURNDATASIZE PUSH1 0x0 REVERT JUMPDEST POP DUP2 PUSH1 0x0 ADD PUSH1 0x0 SWAP1 SLOAD SWAP1 PUSH2 0x100 EXP SWAP1 DIV PUSH20 0xFFFFFFFFFFFFFFFFFFFFFFFFFFFFFFFFFFFFFFFF AND PUSH20 0xFFFFFFFFFFFFFFFFFFFFFFFFFFFFFFFFFFFFFFFF AND DUP4 PUSH32 0xF440AEC6B52895984D061D622E6EDEBA6210F7C3E059BE920663140C084560D7 DUP4 PUSH1 0x40 MLOAD PUSH2 0x3F3 SWAP2 SWAP1 PUSH2 0x958 JUMP JUMPDEST PUSH1 0x40 MLOAD DUP1 SWAP2 SUB SWAP1 LOG3 POP POP POP JUMP JUMPDEST PUSH1 0x1 PUSH1 0x20 MSTORE DUP2 PUSH1 0x0 MSTORE PUSH1 0x40 PUSH1 0x0 KECCAK256 PUSH1 0x20 MSTORE DUP1 PUSH1 0x0 MSTORE PUSH1 0x40 PUSH1 0x0 KECCAK256 PUSH1 0x0 SWAP2 POP SWAP2 POP POP SLOAD DUP2 JUMP JUMPDEST PUSH1 0x2 SLOAD DUP2 JUMP JUMPDEST PUSH1 0x0 DUP2 GT PUSH2 0x46E JUMPI PUSH1 0x40 MLOAD PUSH32 0x8C379A000000000000000000000000000000000000000000000000000000000 DUP2 MSTORE PUSH1 0x4 ADD PUSH2 0x465 SWAP1 PUSH2 0xB3A JUMP JUMPDEST PUSH1 0x40 MLOAD DUP1 SWAP2 SUB SWAP1 REVERT JUMPDEST PUSH1 0x40 MLOAD DUP1 PUSH1 0x80 ADD PUSH1 0x40 MSTORE DUP1 CALLER PUSH20 0xFFFFFFFFFFFFFFFFFFFFFFFFFFFFFFFFFFFFFFFF AND DUP2 MSTORE PUSH1 0x20 ADD DUP3 DUP2 MSTORE PUSH1 0x20 ADD PUSH1 0x0 DUP2 MSTORE PUSH1 0x20 ADD PUSH1 0x0 ISZERO ISZERO DUP2 MSTORE POP PUSH1 0x0 DUP1 PUSH1 0x2 SLOAD DUP2 MSTORE PUSH1 0x20 ADD SWAP1 DUP2 MSTORE PUSH1 0x20 ADD PUSH1 0x0 KECCAK256 PUSH1 0x0 DUP3 ADD MLOAD DUP2 PUSH1 0x0 ADD PUSH1 0x0 PUSH2 0x100 EXP DUP2 SLOAD DUP2 PUSH20 0xFFFFFFFFFFFFFFFFFFFFFFFFFFFFFFFFFFFFFFFF MUL NOT AND SWAP1 DUP4 PUSH20 0xFFFFFFFFFFFFFFFFFFFFFFFFFFFFFFFFFFFFFFFF AND MUL OR SWAP1 SSTORE POP PUSH1 0x20 DUP3 ADD MLOAD DUP2 PUSH1 0x1 ADD SSTORE PUSH1 0x40 DUP3 ADD MLOAD DUP2 PUSH1 0x2 ADD SSTORE PUSH1 0x60 DUP3 ADD MLOAD DUP2 PUSH1 0x3 ADD PUSH1 0x0 PUSH2 0x100 EXP DUP2 SLOAD DUP2 PUSH1 0xFF MUL NOT AND SWAP1 DUP4 ISZERO ISZERO MUL OR SWAP1 SSTORE POP SWAP1 POP POP CALLER PUSH20 0xFFFFFFFFFFFFFFFFFFFFFFFFFFFFFFFFFFFFFFFF AND PUSH1 0x2 SLOAD PUSH32 0x63E3678C8493A16F8BA43AE9E547231762CA04526DAC2C388BD2C26D89401851 DUP4 PUSH1 0x40 MLOAD PUSH2 0x584 SWAP2 SWAP1 PUSH2 0x958 JUMP JUMPDEST PUSH1 0x40 MLOAD DUP1 SWAP2 SUB SWAP1 LOG3 PUSH1 0x2 PUSH1 0x0 DUP2 SLOAD DUP1 SWAP3 SWAP2 SWAP1 PUSH2 0x59F SWAP1 PUSH2 0xB89 JUMP JUMPDEST SWAP2 SWAP1 POP SSTORE POP POP JUMP JUMPDEST PUSH1 0x2 SLOAD DUP2 LT PUSH2 0x5EB JUMPI PUSH1 0x40 MLOAD PUSH32 0x8C379A000000000000000000000000000000000000000000000000000000000 DUP2 MSTORE PUSH1 0x4 ADD PUSH2 0x5E2 SWAP1 PUSH2 0x9D0 JUMP JUMPDEST PUSH1 0x40 MLOAD DUP1 SWAP2 SUB SWAP1 REVERT JUMPDEST PUSH1 0x0 CALLVALUE GT PUSH2 0x62E JUMPI PUSH1 0x40 MLOAD PUSH32 0x8C379A000000000000000000000000000000000000000000000000000000000 DUP2 MSTORE PUSH1 0x4 ADD PUSH2 0x625 SWAP1 PUSH2 0xC43 JUMP JUMPDEST PUSH1 0x40 MLOAD DUP1 SWAP2 SUB SWAP1 REVERT JUMPDEST PUSH1 0x0 DUP1 PUSH1 0x0 DUP4 DUP2 MSTORE PUSH1 0x20 ADD SWAP1 DUP2 MSTORE PUSH1 0x20 ADD PUSH1 0x0 KECCAK256 SWAP1 POP DUP1 PUSH1 0x3 ADD PUSH1 0x0 SWAP1 SLOAD SWAP1 PUSH2 0x100 EXP SWAP1 DIV PUSH1 0xFF AND ISZERO PUSH2 0x696 JUMPI PUSH1 0x40 MLOAD PUSH32 0x8C379A000000000000000000000000000000000000000000000000000000000 DUP2 MSTORE PUSH1 0x4 ADD PUSH2 0x68D SWAP1 PUSH2 0xCAF JUMP JUMPDEST PUSH1 0x40 MLOAD DUP1 SWAP2 SUB SWAP1 REVERT JUMPDEST CALLVALUE PUSH1 0x1 PUSH1 0x0 DUP5 DUP2 MSTORE PUSH1 0x20 ADD SWAP1 DUP2 MSTORE PUSH1 0x20 ADD PUSH1 0x0 KECCAK256 PUSH1 0x0 CALLER PUSH20 0xFFFFFFFFFFFFFFFFFFFFFFFFFFFFFFFFFFFFFFFF AND PUSH20 0xFFFFFFFFFFFFFFFFFFFFFFFFFFFFFFFFFFFFFFFF AND DUP2 MSTORE PUSH1 0x20 ADD SWAP1 DUP2 MSTORE PUSH1 0x20 ADD PUSH1 0x0 KECCAK256 PUSH1 0x0 DUP3 DUP3 SLOAD PUSH2 0x6F6 SWAP2 SWAP1 PUSH2 0xCCF JUMP JUMPDEST SWAP3 POP POP DUP2 SWAP1 SSTORE POP CALLVALUE DUP2 PUSH1 0x2 ADD PUSH1 0x0 DUP3 DUP3 SLOAD PUSH2 0x711 SWAP2 SWAP1 PUSH2 0xCCF JUMP JUMPDEST SWAP3 POP POP DUP2 SWAP1 SSTORE POP DUP1 PUSH1 0x1 ADD SLOAD DUP2 PUSH1 0x2 ADD SLOAD LT PUSH2 0x781 JUMPI PUSH1 0x1 DUP2 PUSH1 0x3 ADD PUSH1 0x0 PUSH2 0x100 EXP DUP2 SLOAD DUP2 PUSH1 0xFF MUL NOT AND SWAP1 DUP4 ISZERO ISZERO MUL OR SWAP1 SSTORE POP DUP2 PUSH32 0x85B3ED4E45559C5F41FB220AA4AC86A440DFC741F219089DE694242940AAA09C DUP3 PUSH1 0x2 ADD SLOAD PUSH1 0x40 MLOAD PUSH2 0x778 SWAP2 SWAP1 PUSH2 0x958 JUMP JUMPDEST PUSH1 0x40 MLOAD DUP1 SWAP2 SUB SWAP1 LOG2 JUMPDEST CALLER PUSH20 0xFFFFFFFFFFFFFFFFFFFFFFFFFFFFFFFFFFFFFFFF AND DUP3 PUSH32 0xB2ED2E021651F85A4754A44651FC09AC5141BC0329CE4DFE8DD712A5D04A8B39 CALLVALUE PUSH1 0x40 MLOAD PUSH2 0x7C8 SWAP2 SWAP1 PUSH2 0x958 JUMP JUMPDEST PUSH1 0x40 MLOAD DUP1 SWAP2 SUB SWAP1 LOG3 POP POP JUMP JUMPDEST PUSH1 0x0 DUP1 REVERT JUMPDEST PUSH1 0x0 DUP2 SWAP1 POP SWAP2 SWAP1 POP JUMP JUMPDEST PUSH2 0x7EC DUP2 PUSH2 0x7D9 JUMP JUMPDEST DUP2 EQ PUSH2 0x7F7 JUMPI PUSH1 0x0 DUP1 REVERT JUMPDEST POP JUMP JUMPDEST PUSH1 0x0 DUP2 CALLDATALOAD SWAP1 POP PUSH2 0x809 DUP2 PUSH2 0x7E3 JUMP JUMPDEST SWAP3 SWAP2 POP POP JUMP JUMPDEST PUSH1 0x0 PUSH1 0x20 DUP3 DUP5 SUB SLT ISZERO PUSH2 0x825 JUMPI PUSH2 0x824 PUSH2 0x7D4 JUMP JUMPDEST JUMPDEST PUSH1 0x0 PUSH2 0x833 DUP5 DUP3 DUP6 ADD PUSH2 0x7FA JUMP JUMPDEST SWAP2 POP POP SWAP3 SWAP2 POP POP JUMP JUMPDEST PUSH1 0x0 PUSH20 0xFFFFFFFFFFFFFFFFFFFFFFFFFFFFFFFFFFFFFFFF DUP3 AND SWAP1 POP SWAP2 SWAP1 POP JUMP JUMPDEST PUSH1 0x0 PUSH2 0x867 DUP3 PUSH2 0x83C JUMP JUMPDEST SWAP1 POP SWAP2 SWAP1 POP JUMP JUMPDEST PUSH2 0x877 DUP2 PUSH2 0x85C JUMP JUMPDEST DUP3 MSTORE POP POP JUMP JUMPDEST PUSH2 0x886 DUP2 PUSH2 0x7D9 JUMP JUMPDEST DUP3 MSTORE POP POP JUMP JUMPDEST PUSH1 0x0 DUP2 ISZERO ISZERO SWAP1 POP SWAP2 SWAP1 POP JUMP JUMPDEST PUSH2 0x8A1 DUP2 PUSH2 0x88C JUMP JUMPDEST DUP3 MSTORE POP POP JUMP JUMPDEST PUSH1 0x0 PUSH1 0x80 DUP3 ADD SWAP1 POP PUSH2 0x8BC PUSH1 0x0 DUP4 ADD DUP8 PUSH2 0x86E JUMP JUMPDEST PUSH2 0x8C9 PUSH1 0x20 DUP4 ADD DUP7 PUSH2 0x87D JUMP JUMPDEST PUSH2 0x8D6 PUSH1 0x40 DUP4 ADD DUP6 PUSH2 0x87D JUMP JUMPDEST PUSH2 0x8E3 PUSH1 0x60 DUP4 ADD DUP5 PUSH2 0x898 JUMP JUMPDEST SWAP6 SWAP5 POP POP POP POP POP JUMP JUMPDEST PUSH2 0x8F5 DUP2 PUSH2 0x85C JUMP JUMPDEST DUP2 EQ PUSH2 0x900 JUMPI PUSH1 0x0 DUP1 REVERT JUMPDEST POP JUMP JUMPDEST PUSH1 0x0 DUP2 CALLDATALOAD SWAP1 POP PUSH2 0x912 DUP2 PUSH2 0x8EC JUMP JUMPDEST SWAP3 SWAP2 POP POP JUMP JUMPDEST PUSH1 0x0 DUP1 PUSH1 0x40 DUP4 DUP6 SUB SLT ISZERO PUSH2 0x92F JUMPI PUSH2 0x92E PUSH2 0x7D4 JUMP JUMPDEST JUMPDEST PUSH1 0x0 PUSH2 0x93D DUP6 DUP3 DUP7 ADD PUSH2 0x7FA JUMP JUMPDEST SWAP3 POP POP PUSH1 0x20 PUSH2 0x94E DUP6 DUP3 DUP7 ADD PUSH2 0x903 JUMP JUMPDEST SWAP2 POP POP SWAP3 POP SWAP3 SWAP1 POP JUMP JUMPDEST PUSH1 0x0 PUSH1 0x20 DUP3 ADD SWAP1 POP PUSH2 0x96D PUSH1 0x0 DUP4 ADD DUP5 PUSH2 0x87D JUMP JUMPDEST SWAP3 SWAP2 POP POP JUMP JUMPDEST PUSH1 0x0 DUP3 DUP3 MSTORE PUSH1 0x20 DUP3 ADD SWAP1 POP SWAP3 SWAP2 POP POP JUMP JUMPDEST PUSH32 0x496E76616C69642063616D706169676E20494400000000000000000000000000 PUSH1 0x0 DUP3 ADD MSTORE POP JUMP JUMPDEST PUSH1 0x0 PUSH2 0x9BA PUSH1 0x13 DUP4 PUSH2 0x973 JUMP JUMPDEST SWAP2 POP PUSH2 0x9C5 DUP3 PUSH2 0x984 JUMP JUMPDEST PUSH1 0x20 DUP3 ADD SWAP1 POP SWAP2 SWAP1 POP JUMP JUMPDEST PUSH1 0x0 PUSH1 0x20 DUP3 ADD SWAP1 POP DUP2 DUP2 SUB PUSH1 0x0 DUP4 ADD MSTORE PUSH2 0x9E9 DUP2 PUSH2 0x9AD JUMP JUMPDEST SWAP1 POP SWAP2 SWAP1 POP JUMP JUMPDEST PUSH32 0x4F6E6C79207468652063616D706169676E206F776E65722063616E2077697468 PUSH1 0x0 DUP3 ADD MSTORE PUSH32 0x6472617700000000000000000000000000000000000000000000000000000000 PUSH1 0x20 DUP3 ADD MSTORE POP JUMP JUMPDEST PUSH1 0x0 PUSH2 0xA4C PUSH1 0x24 DUP4 PUSH2 0x973 JUMP JUMPDEST SWAP2 POP PUSH2 0xA57 DUP3 PUSH2 0x9F0 JUMP JUMPDEST PUSH1 0x40 DUP3 ADD SWAP1 POP SWAP2 SWAP1 POP JUMP JUMPDEST PUSH1 0x0 PUSH1 0x20 DUP3 ADD SWAP1 POP DUP2 DUP2 SUB PUSH1 0x0 DUP4 ADD MSTORE PUSH2 0xA7B DUP2 PUSH2 0xA3F JUMP JUMPDEST SWAP1 POP SWAP2 SWAP1 POP JUMP JUMPDEST PUSH32 0x476F616C206E6F74207265616368656420796574000000000000000000000000 PUSH1 0x0 DUP3 ADD MSTORE POP JUMP JUMPDEST PUSH1 0x0 PUSH2 0xAB8 PUSH1 0x14 DUP4 PUSH2 0x973 JUMP JUMPDEST SWAP2 POP PUSH2 0xAC3 DUP3 PUSH2 0xA82 JUMP JUMPDEST PUSH1 0x20 DUP3 ADD SWAP1 POP SWAP2 SWAP1 POP JUMP JUMPDEST PUSH1 0x0 PUSH1 0x20 DUP3 ADD SWAP1 POP DUP2 DUP2 SUB PUSH1 0x0 DUP4 ADD MSTORE PUSH2 0xAE7 DUP2 PUSH2 0xAAB JUMP JUMPDEST SWAP1 POP SWAP2 SWAP1 POP JUMP JUMPDEST PUSH32 0x476F616C206D7573742062652067726561746572207468616E207A65726F0000 PUSH1 0x0 DUP3 ADD MSTORE POP JUMP JUMPDEST PUSH1 0x0 PUSH2 0xB24 PUSH1 0x1E DUP4 PUSH2 0x973 JUMP JUMPDEST SWAP2 POP PUSH2 0xB2F DUP3 PUSH2 0xAEE JUMP JUMPDEST PUSH1 0x20 DUP3 ADD SWAP1 POP SWAP2 SWAP1 POP JUMP JUMPDEST PUSH1 0x0 PUSH1 0x20 DUP3 ADD SWAP1 POP DUP2 DUP2 SUB PUSH1 0x0 DUP4 ADD MSTORE PUSH2 0xB53 DUP2 PUSH2 0xB17 JUMP JUMPDEST SWAP1 POP SWAP2 SWAP1 POP JUMP JUMPDEST PUSH32 0x4E487B7100000000000000000000000000000000000000000000000000000000 PUSH1 0x0 MSTORE PUSH1 0x11 PUSH1 0x4 MSTORE PUSH1 0x24 PUSH1 0x0 REVERT JUMPDEST PUSH1 0x0 PUSH2 0xB94 DUP3 PUSH2 0x7D9 JUMP JUMPDEST SWAP2 POP PUSH32 0xFFFFFFFFFFFFFFFFFFFFFFFFFFFFFFFFFFFFFFFFFFFFFFFFFFFFFFFFFFFFFFFF DUP3 SUB PUSH2 0xBC6 JUMPI PUSH2 0xBC5 PUSH2 0xB5A JUMP JUMPDEST JUMPDEST PUSH1 0x1 DUP3 ADD SWAP1 POP SWAP2 SWAP1 POP JUMP JUMPDEST PUSH32 0x436F6E747269627574696F6E206D757374206265206772656174657220746861 PUSH1 0x0 DUP3 ADD MSTORE PUSH32 0x6E207A65726F0000000000000000000000000000000000000000000000000000 PUSH1 0x20 DUP3 ADD MSTORE POP JUMP JUMPDEST PUSH1 0x0 PUSH2 0xC2D PUSH1 0x26 DUP4 PUSH2 0x973 JUMP JUMPDEST SWAP2 POP PUSH2 0xC38 DUP3 PUSH2 0xBD1 JUMP JUMPDEST PUSH1 0x40 DUP3 ADD SWAP1 POP SWAP2 SWAP1 POP JUMP JUMPDEST PUSH1 0x0 PUSH1 0x20 DUP3 ADD SWAP1 POP DUP2 DUP2 SUB PUSH1 0x0 DUP4 ADD MSTORE PUSH2 0xC5C DUP2 PUSH2 0xC20 JUMP JUMPDEST SWAP1 POP SWAP2 SWAP1 POP JUMP JUMPDEST PUSH32 0x476F616C20616C72656164792072656163686564000000000000000000000000 PUSH1 0x0 DUP3 ADD MSTORE POP JUMP JUMPDEST PUSH1 0x0 PUSH2 0xC99 PUSH1 0x14 DUP4 PUSH2 0x973 JUMP JUMPDEST SWAP2 POP PUSH2 0xCA4 DUP3 PUSH2 0xC63 JUMP JUMPDEST PUSH1 0x20 DUP3 ADD SWAP1 POP SWAP2 SWAP1 POP JUMP JUMPDEST PUSH1 0x0 PUSH1 0x20 DUP3 ADD SWAP1 POP DUP2 DUP2 SUB PUSH1 0x0 DUP4 ADD MSTORE PUSH2 0xCC8 DUP2 PUSH2 0xC8C JUMP JUMPDEST SWAP1 POP SWAP2 SWAP1 POP JUMP JUMPDEST PUSH1 0x0 PUSH2 0xCDA DUP3 PUSH2 0x7D9 JUMP JUMPDEST SWAP2 POP PUSH2 0xCE5 DUP4 PUSH2 0x7D9 JUMP JUMPDEST SWAP3 POP DUP3 DUP3 ADD SWAP1 POP DUP1 DUP3 GT ISZERO PUSH2 0xCFD JUMPI PUSH2 0xCFC PUSH2 0xB5A JUMP JUMPDEST JUMPDEST SWAP3 SWAP2 POP POP JUMP INVALID LOG2 PUSH5 0x6970667358 0x22 SLT KECCAK256 0x1F 0xEB PUSH24 0xAEC87C7AB596406EEC0BA3E41341DA97525526CE66536A88 CALLER SWAP3 0xC7 0xDD EXTCODEHASH PUSH5 0x736F6C6343 STOP ADDMOD SHL STOP CALLER "
        },
        "methodIdentifiers": {
          "campaignCount()": "7274e30d",
          "campaigns(uint256)": "141961bc",
          "contribute(uint256)": "c1cbbca7",
          "contributions(uint256,address)": "3d891f59",
          "createCampaign(uint256)": "a3303a75",
          "withdrawFunds(uint256)": "155dd5ee"
        }
      }
    }
  }
}