{
  "_format": "hh-sol-artifact-1",
  "contractName": "CrowdFunding",
  "sourceName": "contracts/CrowdFunding.sol",
  "abi": [
    {
      "anonymous": false,
      "inputs": [
        {
          "indexed": true,
          "internalType": "uint256",
          "name": "campaignId",
          "type": "uint256"
        },
        {
          "indexed": true,
          "internalType": "address",
          "name": "owner",
          "type": "address"
        },
        {
          "indexed": false,
          "internalType": "uint256",
          "name": "goal",
          "type": "uint256"
        }
      ],
      "name": "CampaignCreated",
      "type": "event"
    },
    {
      "anonymous": false,
      "inputs": [
        {
          "indexed": true,
          "internalType": "uint256",
          "name": "campaignId",
          "type": "uint256"
        },
        {
          "indexed": true,
          "internalType": "address",
          "name": "contributor",
          "type": "address"
        },
        {
          "indexed": false,
          "internalType": "uint256",
          "name": "amount",
          "type": "uint256"
        }
      ],
      "name": "Contributed",
      "type": "event"
    },
    {
      "anonymous": false,
      "inputs": [
        {
          "indexed": true,
          "internalType": "uint256",
          "name": "campaignId",
          "type": "uint256"
        },
        {
          "indexed": true,
          "internalType": "address",
          "name": "owner",
          "type": "address"
        },
        {
          "indexed": false,
          "internalType": "uint256",
          "name": "amount",
          "type": "uint256"
        }
      ],
      "name": "FundsWithdrawn",
      "type": "event"
    },
    {
      "anonymous": false,
      "inputs": [
        {
          "indexed": true,
          "internalType": "uint256",
          "name": "campaignId",
          "type": "uint256"
        },
        {
          "indexed": false,
          "internalType": "uint256",
          "name": "totalFunds",
          "type": "uint256"
        }
      ],
      "name": "GoalReached",
      "type": "event"
    },
    {
      "inputs": [],
      "name": "campaignCount",
      "outputs": [
        {
          "internalType": "uint256",
          "name": "",
          "type": "uint256"
        }
      ],
      "stateMutability": "view",
      "type": "function"
    },
    {
      "inputs": [
        {
          "internalType": "uint256",
          "name": "",
          "type": "uint256"
        }
      ],
      "name": "campaigns",
      "outputs": [
        {
          "internalType": "address",
          "name": "owner",
          "type": "address"
        },
        {
          "internalType": "uint256",
          "name": "goal",
          "type": "uint256"
        },
        {
          "internalType": "uint256",
          "name": "totalFunds",
          "type": "uint256"
        },
        {
          "internalType": "bool",
          "name": "isGoalReached",
          "type": "bool"
        }
      ],
      "stateMutability": "view",
      "type": "function"
    },
    {
      "inputs": [
        {
          "internalType": "uint256",
          "name": "_campaignId",
          "type": "uint256"
        }
      ],
      "name": "contribute",
      "outputs": [],
      "stateMutability": "payable",
      "type": "function"
    },
    {
      "inputs": [
        {
          "internalType": "uint256",
          "name": "",
          "type": "uint256"
        },
        {
          "internalType": "address",
          "name": "",
          "type": "address"
        }
      ],
      "name": "contributions",
      "outputs": [
        {
          "internalType": "uint256",
          "name": "",
          "type": "uint256"
        }
      ],
      "stateMutability": "view",
      "type": "function"
    },
    {
      "inputs": [
        {
          "internalType": "uint256",
          "name": "_goal",
          "type": "uint256"
        }
      ],
      "name": "createCampaign",
      "outputs": [],
      "stateMutability": "nonpayable",
      "type": "function"
    },
    {
      "inputs": [
        {
          "internalType": "uint256",
          "name": "_campaignId",
          "type": "uint256"
        }
      ],
      "name": "withdrawFunds",
      "outputs": [],
      "stateMutability": "nonpayable",
      "type": "function"
    }
  ],
  "bytecode": "0x6080604052348015600f57600080fd5b50610d398061001f6000396000f3fe6080604052600436106100555760003560e01c8063141961bc1461005a578063155dd5ee1461009a5780633d891f59146100c35780637274e30d14610100578063a3303a751461012b578063c1cbbca714610154575b600080fd5b34801561006657600080fd5b50610081600480360381019061007c919061080f565b610170565b60405161009194939291906108a7565b60405180910390f35b3480156100a657600080fd5b506100c160048036038101906100bc919061080f565b6101cd565b005b3480156100cf57600080fd5b506100ea60048036038101906100e59190610918565b610400565b6040516100f79190610958565b60405180910390f35b34801561010c57600080fd5b50610115610425565b6040516101229190610958565b60405180910390f35b34801561013757600080fd5b50610152600480360381019061014d919061080f565b61042b565b005b61016e6004803603810190610169919061080f565b6105a7565b005b60006020528060005260406000206000915090508060000160009054906101000a900473ffffffffffffffffffffffffffffffffffffffff16908060010154908060020154908060030160009054906101000a900460ff16905084565b6002548110610211576040517f08c379a0000000000000000000000000000000000000000000000000000000008152600401610208906109d0565b60405180910390fd5b600080600083815260200190815260200160002090508060000160009054906101000a900473ffffffffffffffffffffffffffffffffffffffff1673ffffffffffffffffffffffffffffffffffffffff163373ffffffffffffffffffffffffffffffffffffffff16146102b9576040517f08c379a00000000000000000000000000000000000000000000000000000000081526004016102b090610a62565b60405180910390fd5b8060030160009054906101000a900460ff1661030a576040517f08c379a000000000000000000000000000000000000000000000000000000000815260040161030190610ace565b60405180910390fd5b600081600201549050600082600201819055508160000160009054906101000a900473ffffffffffffffffffffffffffffffffffffffff1673ffffffffffffffffffffffffffffffffffffffff166108fc829081150290604051600060405180830381858888f19350505050158015610387573d6000803e3d6000fd5b508160000160009054906101000a900473ffffffffffffffffffffffffffffffffffffffff1673ffffffffffffffffffffffffffffffffffffffff16837ff440aec6b52895984d061d622e6edeba6210f7c3e059be920663140c084560d7836040516103f39190610958565b60405180910390a3505050565b6001602052816000526040600020602052806000526040600020600091509150505481565b60025481565b6000811161046e576040517f08c379a000000000000000000000000000000000000000000000000000000000815260040161046590610b3a565b60405180910390fd5b60405180608001604052803373ffffffffffffffffffffffffffffffffffffffff1681526020018281526020016000815260200160001515815250600080600254815260200190815260200160002060008201518160000160006101000a81548173ffffffffffffffffffffffffffffffffffffffff021916908373ffffffffffffffffffffffffffffffffffffffff160217905550602082015181600101556040820151816002015560608201518160030160006101000a81548160ff0219169083151502179055509050503373ffffffffffffffffffffffffffffffffffffffff166002547f63e3678c8493a16f8ba43ae9e547231762ca04526dac2c388bd2c26d89401851836040516105849190610958565b60405180910390a36002600081548092919061059f90610b89565b919050555050565b60025481106105eb576040517f08c379a00000000000000000000000000000000000000000000000000000000081526004016105e2906109d0565b60405180910390fd5b6000341161062e576040517f08c379a000000000000000000000000000000000000000000000000000000000815260040161062590610c43565b60405180910390fd5b600080600083815260200190815260200160002090508060030160009054906101000a900460ff1615610696576040517f08c379a000000000000000000000000000000000000000000000000000000000815260040161068d90610caf565b60405180910390fd5b346001600084815260200190815260200160002060003373ffffffffffffffffffffffffffffffffffffffff1673ffffffffffffffffffffffffffffffffffffffff16815260200190815260200160002060008282546106f69190610ccf565b92505081905550348160020160008282546107119190610ccf565b9250508190555080600101548160020154106107815760018160030160006101000a81548160ff021916908315150217905550817f85b3ed4e45559c5f41fb220aa4ac86a440dfc741f219089de694242940aaa09c82600201546040516107789190610958565b60405180910390a25b3373ffffffffffffffffffffffffffffffffffffffff16827fb2ed2e021651f85a4754a44651fc09ac5141bc0329ce4dfe8dd712a5d04a8b39346040516107c89190610958565b60405180910390a35050565b600080fd5b6000819050919050565b6107ec816107d9565b81146107f757600080fd5b50565b600081359050610809816107e3565b92915050565b600060208284031215610825576108246107d4565b5b6000610833848285016107fa565b91505092915050565b600073ffffffffffffffffffffffffffffffffffffffff82169050919050565b60006108678261083c565b9050919050565b6108778161085c565b82525050565b610886816107d9565b82525050565b60008115159050919050565b6108a18161088c565b82525050565b60006080820190506108bc600083018761086e565b6108c9602083018661087d565b6108d6604083018561087d565b6108e36060830184610898565b95945050505050565b6108f58161085c565b811461090057600080fd5b50565b600081359050610912816108ec565b92915050565b6000806040838503121561092f5761092e6107d4565b5b600061093d858286016107fa565b925050602061094e85828601610903565b9150509250929050565b600060208201905061096d600083018461087d565b92915050565b600082825260208201905092915050565b7f496e76616c69642063616d706169676e20494400000000000000000000000000600082015250565b60006109ba601383610973565b91506109c582610984565b602082019050919050565b600060208201905081810360008301526109e9816109ad565b9050919050565b7f4f6e6c79207468652063616d706169676e206f776e65722063616e207769746860008201527f6472617700000000000000000000000000000000000000000000000000000000602082015250565b6000610a4c602483610973565b9150610a57826109f0565b604082019050919050565b60006020820190508181036000830152610a7b81610a3f565b9050919050565b7f476f616c206e6f74207265616368656420796574000000000000000000000000600082015250565b6000610ab8601483610973565b9150610ac382610a82565b602082019050919050565b60006020820190508181036000830152610ae781610aab565b9050919050565b7f476f616c206d7573742062652067726561746572207468616e207a65726f0000600082015250565b6000610b24601e83610973565b9150610b2f82610aee565b602082019050919050565b60006020820190508181036000830152610b5381610b17565b9050919050565b7f4e487b7100000000000000000000000000000000000000000000000000000000600052601160045260246000fd5b6000610b94826107d9565b91507fffffffffffffffffffffffffffffffffffffffffffffffffffffffffffffffff8203610bc657610bc5610b5a565b5b600182019050919050565b7f436f6e747269627574696f6e206d75737420626520677265617465722074686160008201527f6e207a65726f0000000000000000000000000000000000000000000000000000602082015250565b6000610c2d602683610973565b9150610c3882610bd1565b604082019050919050565b60006020820190508181036000830152610c5c81610c20565b9050919050565b7f476f616c20616c72656164792072656163686564000000000000000000000000600082015250565b6000610c99601483610973565b9150610ca482610c63565b602082019050919050565b60006020820190508181036000830152610cc881610c8c565b9050919050565b6000610cda826107d9565b9150610ce5836107d9565b9250828201905080821115610cfd57610cfc610b5a565b5b9291505056fea26469706673582212201feb77aec87c7ab596406eec0ba3e41341da97525526ce66536a883392c7dd3f64736f6c634300081b0033",
  "linkReferences": {},
  "deployedLinkReferences": {}
}